{
  "_format": "hh-sol-artifact-1",
  "contractName": "RandomHaha",
  "sourceName": "contracts/Random.sol",
  "abi": [
    {
      "inputs": [],
      "stateMutability": "nonpayable",
      "type": "constructor"
    },
    {
      "stateMutability": "payable",
      "type": "fallback"
    },
    {
      "inputs": [
        {
          "internalType": "uint256",
          "name": "number",
          "type": "uint256"
        }
      ],
      "name": "RandomNum",
      "outputs": [],
      "stateMutability": "payable",
      "type": "function"
    },
    {
      "inputs": [],
      "name": "getBalance",
      "outputs": [
        {
          "internalType": "uint256",
          "name": "",
          "type": "uint256"
        }
      ],
      "stateMutability": "view",
      "type": "function"
    },
    {
      "inputs": [],
      "name": "viewNum",
      "outputs": [
        {
          "internalType": "bool",
          "name": "",
          "type": "bool"
        },
        {
          "internalType": "uint256",
          "name": "",
          "type": "uint256"
        }
      ],
      "stateMutability": "view",
      "type": "function"
    },
    {
      "stateMutability": "payable",
      "type": "receive"
    }
  ],
  "bytecode": "0x6080604052600080556001805460ff1916905534801561001e57600080fd5b5060016000819055805460ff191690556102bb8061003d6000396000f3fe6080604052600436106100355760003560e01c806312065fe01461003e57806354c5b1481461005e5780635729c6561461009357005b3661003c57005b005b34801561004a57600080fd5b506040514781526020015b60405180910390f35b34801561006a57600080fd5b5061007c60015460025460ff90911691565b604080519215158352602083019190915201610055565b61003c6100a1366004610222565b344710156101025760405162461bcd60e51b815260206004820152602360248201527f496e73756666696369656e206d6f6e6579206f6e20736d61727420636f6e74726044820152621858dd60ea1b60648201526084015b60405180910390fd5b6000341161015e5760405162461bcd60e51b8152602060048201526024808201527f496e73756666696369656e742066756e647320746f20616c6c6f77207472616e60448201526339b332b960e11b60648201526084016100f9565b600054604080514260208201526bffffffffffffffffffffffff193360601b16918101919091526054810191909152600a906074016040516020818303038152906040528051906020012060001c6101b69190610265565b6002819055811415610209576001805460ff191681179055336108fc6101dd34600261023a565b6040518115909202916000818181858888f19350505050158015610205573d6000803e3d6000fd5b5050565b6001805460ff19169055306108fc6101dd34600261023a565b600060208284031215610233578081fd5b5035919050565b600081600019048311821515161561026057634e487b7160e01b81526011600452602481fd5b500290565b60008261028057634e487b7160e01b81526012600452602481fd5b50069056fea26469706673582212207c33c8f0d7ffc21cd23b5b97140474579ca93e7d76145f146c3b0730077d84e064736f6c63430008040033",
  "linkReferences": {},
  "deployedLinkReferences": {}
}